{
  "contractName": "AppointmentPayment",
  "abi": [
    {
      "inputs": [
        {
          "internalType": "address payable",
          "name": "_admin",
          "type": "address"
        }
      ],
      "stateMutability": "nonpayable",
      "type": "constructor"
    },
    {
      "anonymous": false,
      "inputs": [
        {
          "indexed": true,
          "internalType": "bytes32",
          "name": "appointmentId",
          "type": "bytes32"
        },
        {
          "indexed": true,
          "internalType": "address",
          "name": "patient",
          "type": "address"
        }
      ],
      "name": "AppointmentBooked",
      "type": "event"
    },
    {
      "inputs": [],
      "name": "admin",
      "outputs": [
        {
          "internalType": "address payable",
          "name": "",
          "type": "address"
        }
      ],
      "stateMutability": "view",
      "type": "function",
      "constant": true
    },
    {
      "inputs": [
        {
          "internalType": "bytes32",
          "name": "",
          "type": "bytes32"
        }
      ],
      "name": "appointments",
      "outputs": [
        {
          "internalType": "address",
          "name": "patient",
          "type": "address"
        },
        {
          "internalType": "string",
          "name": "doctorLicense",
          "type": "string"
        },
        {
          "internalType": "string",
          "name": "date",
          "type": "string"
        },
        {
          "internalType": "string",
          "name": "time",
          "type": "string"
        },
        {
          "internalType": "string",
          "name": "note",
          "type": "string"
        }
      ],
      "stateMutability": "view",
      "type": "function",
      "constant": true
    },
    {
      "inputs": [],
      "name": "fee",
      "outputs": [
        {
          "internalType": "uint256",
          "name": "",
          "type": "uint256"
        }
      ],
      "stateMutability": "view",
      "type": "function",
      "constant": true
    },
    {
      "inputs": [
        {
          "internalType": "string",
          "name": "doctorLicense",
          "type": "string"
        },
        {
          "internalType": "string",
          "name": "date",
          "type": "string"
        },
        {
          "internalType": "string",
          "name": "time",
          "type": "string"
        },
        {
          "internalType": "string",
          "name": "note",
          "type": "string"
        },
        {
          "internalType": "bytes32",
          "name": "appointmentId",
          "type": "bytes32"
        }
      ],
      "name": "payAndBook",
      "outputs": [],
      "stateMutability": "payable",
      "type": "function",
      "payable": true
    },
    {
      "inputs": [],
      "name": "withdraw",
      "outputs": [],
      "stateMutability": "nonpayable",
      "type": "function"
    },
    {
      "inputs": [
        {
          "internalType": "bytes32",
          "name": "appointmentId",
          "type": "bytes32"
        }
      ],
      "name": "getAppointment",
      "outputs": [
        {
          "components": [
            {
              "internalType": "address",
              "name": "patient",
              "type": "address"
            },
            {
              "internalType": "string",
              "name": "doctorLicense",
              "type": "string"
            },
            {
              "internalType": "string",
              "name": "date",
              "type": "string"
            },
            {
              "internalType": "string",
              "name": "time",
              "type": "string"
            },
            {
              "internalType": "string",
              "name": "note",
              "type": "string"
            }
          ],
          "internalType": "struct AppointmentPayment.Appointment",
          "name": "",
          "type": "tuple"
        }
      ],
      "stateMutability": "view",
      "type": "function",
      "constant": true
    }
  ],
  "bytecode": "0x608060405265a3b5840f40006001553480156200001a575f80fd5b50604051620015f1380380620015f18339818101604052810190620000409190620000eb565b805f806101000a81548173ffffffffffffffffffffffffffffffffffffffff021916908373ffffffffffffffffffffffffffffffffffffffff160217905550506200011b565b5f80fd5b5f73ffffffffffffffffffffffffffffffffffffffff82169050919050565b5f620000b5826200008a565b9050919050565b620000c781620000a9565b8114620000d2575f80fd5b50565b5f81519050620000e581620000bc565b92915050565b5f6020828403121562000103576200010262000086565b5b5f6200011284828501620000d5565b91505092915050565b6114c880620001295f395ff3fe608060405260043610610054575f3560e01c80633ccfd60b14610058578063ad36769b1461006e578063afea7d36146100ae578063ce2a18ce146100ca578063ddca3f4314610106578063f851a44014610130575b5f80fd5b348015610063575f80fd5b5061006c61015a565b005b348015610079575f80fd5b50610094600480360381019061008f9190610b0b565b61024c565b6040516100a5959493929190610bff565b60405180910390f35b6100c860048036038101906100c39190610d98565b6104b5565b005b3480156100d5575f80fd5b506100f060048036038101906100eb9190610b0b565b61079b565b6040516100fd9190610f5e565b60405180910390f35b348015610111575f80fd5b5061011a610a5a565b6040516101279190610f96565b60405180910390f35b34801561013b575f80fd5b50610144610a60565b6040516101519190610fcf565b60405180910390f35b5f8054906101000a900473ffffffffffffffffffffffffffffffffffffffff1673ffffffffffffffffffffffffffffffffffffffff163373ffffffffffffffffffffffffffffffffffffffff16146101e7576040517f08c379a00000000000000000000000000000000000000000000000000000000081526004016101de90611032565b60405180910390fd5b5f8054906101000a900473ffffffffffffffffffffffffffffffffffffffff1673ffffffffffffffffffffffffffffffffffffffff166108fc4790811502906040515f60405180830381858888f19350505050158015610249573d5f803e3d5ffd5b50565b6002602052805f5260405f205f91509050805f015f9054906101000a900473ffffffffffffffffffffffffffffffffffffffff16908060010180546102909061107d565b80601f01602080910402602001604051908101604052809291908181526020018280546102bc9061107d565b80156103075780601f106102de57610100808354040283529160200191610307565b820191905f5260205f20905b8154815290600101906020018083116102ea57829003601f168201915b50505050509080600201805461031c9061107d565b80601f01602080910402602001604051908101604052809291908181526020018280546103489061107d565b80156103935780601f1061036a57610100808354040283529160200191610393565b820191905f5260205f20905b81548152906001019060200180831161037657829003601f168201915b5050505050908060030180546103a89061107d565b80601f01602080910402602001604051908101604052809291908181526020018280546103d49061107d565b801561041f5780601f106103f65761010080835404028352916020019161041f565b820191905f5260205f20905b81548152906001019060200180831161040257829003601f168201915b5050505050908060040180546104349061107d565b80601f01602080910402602001604051908101604052809291908181526020018280546104609061107d565b80156104ab5780601f10610482576101008083540402835291602001916104ab565b820191905f5260205f20905b81548152906001019060200180831161048e57829003601f168201915b5050505050905085565b6001543410156104fa576040517f08c379a00000000000000000000000000000000000000000000000000000000081526004016104f1906110f7565b60405180910390fd5b5f73ffffffffffffffffffffffffffffffffffffffff1660025f8381526020019081526020015f205f015f9054906101000a900473ffffffffffffffffffffffffffffffffffffffff1673ffffffffffffffffffffffffffffffffffffffff161461059a576040517f08c379a00000000000000000000000000000000000000000000000000000000081526004016105919061115f565b60405180910390fd5b6040518060a001604052803373ffffffffffffffffffffffffffffffffffffffff1681526020018681526020018581526020018481526020018381525060025f8381526020019081526020015f205f820151815f015f6101000a81548173ffffffffffffffffffffffffffffffffffffffff021916908373ffffffffffffffffffffffffffffffffffffffff1602179055506020820151816001019081610641919061131a565b506040820151816002019081610657919061131a565b50606082015181600301908161066d919061131a565b506080820151816004019081610683919061131a565b509050503373ffffffffffffffffffffffffffffffffffffffff16817f7801a2e3fa4213e285c66b8174c27ebf9cc73a7a0e8101e5ebcd06125ec6163a60405160405180910390a35f805f9054906101000a900473ffffffffffffffffffffffffffffffffffffffff1673ffffffffffffffffffffffffffffffffffffffff163460405161071090611416565b5f6040518083038185875af1925050503d805f811461074a576040519150601f19603f3d011682016040523d82523d5f602084013e61074f565b606091505b5050905080610793576040517f08c379a000000000000000000000000000000000000000000000000000000000815260040161078a90611474565b60405180910390fd5b505050505050565b6107a3610a83565b60025f8381526020019081526020015f206040518060a00160405290815f82015f9054906101000a900473ffffffffffffffffffffffffffffffffffffffff1673ffffffffffffffffffffffffffffffffffffffff1673ffffffffffffffffffffffffffffffffffffffff1681526020016001820180546108239061107d565b80601f016020809104026020016040519081016040528092919081815260200182805461084f9061107d565b801561089a5780601f106108715761010080835404028352916020019161089a565b820191905f5260205f20905b81548152906001019060200180831161087d57829003601f168201915b505050505081526020016002820180546108b39061107d565b80601f01602080910402602001604051908101604052809291908181526020018280546108df9061107d565b801561092a5780601f106109015761010080835404028352916020019161092a565b820191905f5260205f20905b81548152906001019060200180831161090d57829003601f168201915b505050505081526020016003820180546109439061107d565b80601f016020809104026020016040519081016040528092919081815260200182805461096f9061107d565b80156109ba5780601f10610991576101008083540402835291602001916109ba565b820191905f5260205f20905b81548152906001019060200180831161099d57829003601f168201915b505050505081526020016004820180546109d39061107d565b80601f01602080910402602001604051908101604052809291908181526020018280546109ff9061107d565b8015610a4a5780601f10610a2157610100808354040283529160200191610a4a565b820191905f5260205f20905b815481529060010190602001808311610a2d57829003601f168201915b5050505050815250509050919050565b60015481565b5f8054906101000a900473ffffffffffffffffffffffffffffffffffffffff1681565b6040518060a001604052805f73ffffffffffffffffffffffffffffffffffffffff168152602001606081526020016060815260200160608152602001606081525090565b5f604051905090565b5f80fd5b5f80fd5b5f819050919050565b610aea81610ad8565b8114610af4575f80fd5b50565b5f81359050610b0581610ae1565b92915050565b5f60208284031215610b2057610b1f610ad0565b5b5f610b2d84828501610af7565b91505092915050565b5f73ffffffffffffffffffffffffffffffffffffffff82169050919050565b5f610b5f82610b36565b9050919050565b610b6f81610b55565b82525050565b5f81519050919050565b5f82825260208201905092915050565b5f5b83811015610bac578082015181840152602081019050610b91565b5f8484015250505050565b5f601f19601f8301169050919050565b5f610bd182610b75565b610bdb8185610b7f565b9350610beb818560208601610b8f565b610bf481610bb7565b840191505092915050565b5f60a082019050610c125f830188610b66565b8181036020830152610c248187610bc7565b90508181036040830152610c388186610bc7565b90508181036060830152610c4c8185610bc7565b90508181036080830152610c608184610bc7565b90509695505050505050565b5f80fd5b5f80fd5b7f4e487b71000000000000000000000000000000000000000000000000000000005f52604160045260245ffd5b610caa82610bb7565b810181811067ffffffffffffffff82111715610cc957610cc8610c74565b5b80604052505050565b5f610cdb610ac7565b9050610ce78282610ca1565b919050565b5f67ffffffffffffffff821115610d0657610d05610c74565b5b610d0f82610bb7565b9050602081019050919050565b828183375f83830152505050565b5f610d3c610d3784610cec565b610cd2565b905082815260208101848484011115610d5857610d57610c70565b5b610d63848285610d1c565b509392505050565b5f82601f830112610d7f57610d7e610c6c565b5b8135610d8f848260208601610d2a565b91505092915050565b5f805f805f60a08688031215610db157610db0610ad0565b5b5f86013567ffffffffffffffff811115610dce57610dcd610ad4565b5b610dda88828901610d6b565b955050602086013567ffffffffffffffff811115610dfb57610dfa610ad4565b5b610e0788828901610d6b565b945050604086013567ffffffffffffffff811115610e2857610e27610ad4565b5b610e3488828901610d6b565b935050606086013567ffffffffffffffff811115610e5557610e54610ad4565b5b610e6188828901610d6b565b9250506080610e7288828901610af7565b9150509295509295909350565b610e8881610b55565b82525050565b5f82825260208201905092915050565b5f610ea882610b75565b610eb28185610e8e565b9350610ec2818560208601610b8f565b610ecb81610bb7565b840191505092915050565b5f60a083015f830151610eeb5f860182610e7f565b5060208301518482036020860152610f038282610e9e565b91505060408301518482036040860152610f1d8282610e9e565b91505060608301518482036060860152610f378282610e9e565b91505060808301518482036080860152610f518282610e9e565b9150508091505092915050565b5f6020820190508181035f830152610f768184610ed6565b905092915050565b5f819050919050565b610f9081610f7e565b82525050565b5f602082019050610fa95f830184610f87565b92915050565b5f610fb982610b36565b9050919050565b610fc981610faf565b82525050565b5f602082019050610fe25f830184610fc0565b92915050565b7f4f6e6c792061646d696e2063616e2077697468647261770000000000000000005f82015250565b5f61101c601783610b7f565b915061102782610fe8565b602082019050919050565b5f6020820190508181035f83015261104981611010565b9050919050565b7f4e487b71000000000000000000000000000000000000000000000000000000005f52602260045260245ffd5b5f600282049050600182168061109457607f821691505b6020821081036110a7576110a6611050565b5b50919050565b7f496e73756666696369656e74204554482073656e7400000000000000000000005f82015250565b5f6110e1601583610b7f565b91506110ec826110ad565b602082019050919050565b5f6020820190508181035f83015261110e816110d5565b9050919050565b7f4170706f696e746d656e742065786973747300000000000000000000000000005f82015250565b5f611149601283610b7f565b915061115482611115565b602082019050919050565b5f6020820190508181035f8301526111768161113d565b9050919050565b5f819050815f5260205f209050919050565b5f6020601f8301049050919050565b5f82821b905092915050565b5f600883026111d97fffffffffffffffffffffffffffffffffffffffffffffffffffffffffffffffff8261119e565b6111e3868361119e565b95508019841693508086168417925050509392505050565b5f819050919050565b5f61121e61121961121484610f7e565b6111fb565b610f7e565b9050919050565b5f819050919050565b61123783611204565b61124b61124382611225565b8484546111aa565b825550505050565b5f90565b61125f611253565b61126a81848461122e565b505050565b5b8181101561128d576112825f82611257565b600181019050611270565b5050565b601f8211156112d2576112a38161117d565b6112ac8461118f565b810160208510156112bb578190505b6112cf6112c78561118f565b83018261126f565b50505b505050565b5f82821c905092915050565b5f6112f25f19846008026112d7565b1980831691505092915050565b5f61130a83836112e3565b9150826002028217905092915050565b61132382610b75565b67ffffffffffffffff81111561133c5761133b610c74565b5b611346825461107d565b611351828285611291565b5f60209050601f831160018114611382575f8415611370578287015190505b61137a85826112ff565b8655506113e1565b601f1984166113908661117d565b5f5b828110156113b757848901518255600182019150602085019450602081019050611392565b868310156113d457848901516113d0601f8916826112e3565b8355505b6001600288020188555050505b505050505050565b5f81905092915050565b50565b5f6114015f836113e9565b915061140c826113f3565b5f82019050919050565b5f611420826113f6565b9150819050919050565b7f5472616e7366657220746f2061646d696e206661696c656400000000000000005f82015250565b5f61145e601883610b7f565b91506114698261142a565b602082019050919050565b5f6020820190508181035f83015261148b81611452565b905091905056fea264697066735822122065f067e4fb9a1b9c3439994daef79f1d7d561d1df83781f81e38af71104856b664736f6c63430008140033",
  "immutableReferences": {},
  "source": "// SPDX-License-Identifier: MIT\r\npragma solidity ^0.8.20;\r\n\r\ncontract AppointmentPayment {\r\n    address payable public admin;\r\n    uint256 public fee = 0.00018 ether;\r\n\r\n    struct Appointment {\r\n        address patient;\r\n        string doctorLicense;\r\n        string date;\r\n        string time;\r\n        string note;\r\n    }\r\n\r\n    mapping(bytes32 => Appointment) public appointments;\r\n\r\n    event AppointmentBooked(bytes32 indexed appointmentId, address indexed patient);\r\n\r\n    constructor(address payable _admin) {\r\n        admin = _admin;\r\n    }\r\n\r\n    function payAndBook(\r\n        string memory doctorLicense,\r\n        string memory date,\r\n        string memory time,\r\n        string memory note,\r\n        bytes32 appointmentId\r\n    ) external payable {\r\n        require(msg.value >= fee, \"Insufficient ETH sent\");\r\n        require(appointments[appointmentId].patient == address(0), \"Appointment exists\");\r\n\r\n        appointments[appointmentId] = Appointment({\r\n            patient: msg.sender,\r\n            doctorLicense: doctorLicense,\r\n            date: date,\r\n            time: time,\r\n            note: note\r\n        });\r\n\r\n        emit AppointmentBooked(appointmentId, msg.sender);\r\n        (bool success, ) = admin.call{value: msg.value}(\"\");\r\n        require(success, \"Transfer to admin failed\");\r\n    }\r\n\r\n    function withdraw() external {\r\n        require(msg.sender == admin, \"Only admin can withdraw\");\r\n        admin.transfer(address(this).balance);\r\n    }\r\n\r\n    function getAppointment(bytes32 appointmentId) external view returns (Appointment memory) {\r\n        return appointments[appointmentId];\r\n    }\r\n}\r\n",
  "sourcePath": "C:\\Users\\Jayant Ramdurg\\Desktop\\healthcare-dapp\\contracts\\AppointmentPayment.sol",
  "compiler": {
    "name": "solc",
    "version": "0.8.20+commit.a1b79de6.Emscripten.clang"
  },
  "schemaVersion": "3.4.16",
  "updatedAt": "2025-10-20T18:23:00.610Z",
  "networkType": "ethereum",
  "devdoc": {
    "kind": "dev",
    "methods": {},
    "version": 1
  },
  "userdoc": {
    "kind": "user",
    "methods": {},
    "version": 1
  }
}